{
    "contractName": "PoninisAlmighty",
    "abi": [
        {
            "inputs": [],
            "stateMutability": "nonpayable",
            "type": "constructor"
        },
        {
            "anonymous": false,
            "inputs": [
                {
                    "indexed": true,
                    "internalType": "address",
                    "name": "owner",
                    "type": "address"
                },
                {
                    "indexed": true,
                    "internalType": "address",
                    "name": "approved",
                    "type": "address"
                },
                {
                    "indexed": true,
                    "internalType": "uint256",
                    "name": "tokenId",
                    "type": "uint256"
                }
            ],
            "name": "Approval",
            "type": "event"
        },
        {
            "anonymous": false,
            "inputs": [
                {
                    "indexed": true,
                    "internalType": "address",
                    "name": "owner",
                    "type": "address"
                },
                {
                    "indexed": true,
                    "internalType": "address",
                    "name": "operator",
                    "type": "address"
                },
                {
                    "indexed": false,
                    "internalType": "bool",
                    "name": "approved",
                    "type": "bool"
                }
            ],
            "name": "ApprovalForAll",
            "type": "event"
        },
        {
            "anonymous": false,
            "inputs": [
                {
                    "indexed": true,
                    "internalType": "address",
                    "name": "previousOwner",
                    "type": "address"
                },
                {
                    "indexed": true,
                    "internalType": "address",
                    "name": "newOwner",
                    "type": "address"
                }
            ],
            "name": "OwnershipTransferred",
            "type": "event"
        },
        {
            "anonymous": false,
            "inputs": [
                {
                    "indexed": true,
                    "internalType": "address",
                    "name": "from",
                    "type": "address"
                },
                {
                    "indexed": true,
                    "internalType": "address",
                    "name": "to",
                    "type": "address"
                },
                {
                    "indexed": true,
                    "internalType": "uint256",
                    "name": "tokenId",
                    "type": "uint256"
                }
            ],
            "name": "Transfer",
            "type": "event"
        },
        {
            "inputs": [],
            "name": "MAX_MINT_PER_TX",
            "outputs": [
                {
                    "internalType": "uint256",
                    "name": "",
                    "type": "uint256"
                }
            ],
            "stateMutability": "view",
            "type": "function",
            "constant": true
        },
        {
            "inputs": [],
            "name": "MAX_SUPPLY",
            "outputs": [
                {
                    "internalType": "uint256",
                    "name": "",
                    "type": "uint256"
                }
            ],
            "stateMutability": "view",
            "type": "function",
            "constant": true
        },
        {
            "inputs": [
                {
                    "internalType": "address",
                    "name": "to",
                    "type": "address"
                },
                {
                    "internalType": "uint256",
                    "name": "tokenId",
                    "type": "uint256"
                }
            ],
            "name": "approve",
            "outputs": [],
            "stateMutability": "nonpayable",
            "type": "function"
        },
        {
            "inputs": [
                {
                    "internalType": "address",
                    "name": "owner",
                    "type": "address"
                }
            ],
            "name": "balanceOf",
            "outputs": [
                {
                    "internalType": "uint256",
                    "name": "",
                    "type": "uint256"
                }
            ],
            "stateMutability": "view",
            "type": "function",
            "constant": true
        },
        {
            "inputs": [],
            "name": "baseTokenURI",
            "outputs": [
                {
                    "internalType": "string",
                    "name": "",
                    "type": "string"
                }
            ],
            "stateMutability": "view",
            "type": "function",
            "constant": true
        },
        {
            "inputs": [
                {
                    "internalType": "uint256",
                    "name": "tokenId",
                    "type": "uint256"
                }
            ],
            "name": "getApproved",
            "outputs": [
                {
                    "internalType": "address",
                    "name": "",
                    "type": "address"
                }
            ],
            "stateMutability": "view",
            "type": "function",
            "constant": true
        },
        {
            "inputs": [],
            "name": "initial_price",
            "outputs": [
                {
                    "internalType": "uint256",
                    "name": "",
                    "type": "uint256"
                }
            ],
            "stateMutability": "view",
            "type": "function",
            "constant": true
        },
        {
            "inputs": [
                {
                    "internalType": "address",
                    "name": "owner",
                    "type": "address"
                },
                {
                    "internalType": "address",
                    "name": "operator",
                    "type": "address"
                }
            ],
            "name": "isApprovedForAll",
            "outputs": [
                {
                    "internalType": "bool",
                    "name": "",
                    "type": "bool"
                }
            ],
            "stateMutability": "view",
            "type": "function",
            "constant": true
        },
        {
            "inputs": [],
            "name": "name",
            "outputs": [
                {
                    "internalType": "string",
                    "name": "",
                    "type": "string"
                }
            ],
            "stateMutability": "view",
            "type": "function",
            "constant": true
        },
        {
            "inputs": [],
            "name": "owner",
            "outputs": [
                {
                    "internalType": "address",
                    "name": "",
                    "type": "address"
                }
            ],
            "stateMutability": "view",
            "type": "function",
            "constant": true
        },
        {
            "inputs": [
                {
                    "internalType": "uint256",
                    "name": "tokenId",
                    "type": "uint256"
                }
            ],
            "name": "ownerOf",
            "outputs": [
                {
                    "internalType": "address",
                    "name": "",
                    "type": "address"
                }
            ],
            "stateMutability": "view",
            "type": "function",
            "constant": true
        },
        {
            "inputs": [],
            "name": "price",
            "outputs": [
                {
                    "internalType": "uint256",
                    "name": "",
                    "type": "uint256"
                }
            ],
            "stateMutability": "view",
            "type": "function",
            "constant": true
        },
        {
            "inputs": [],
            "name": "renounceOwnership",
            "outputs": [],
            "stateMutability": "nonpayable",
            "type": "function"
        },
        {
            "inputs": [
                {
                    "internalType": "address",
                    "name": "from",
                    "type": "address"
                },
                {
                    "internalType": "address",
                    "name": "to",
                    "type": "address"
                },
                {
                    "internalType": "uint256",
                    "name": "tokenId",
                    "type": "uint256"
                }
            ],
            "name": "safeTransferFrom",
            "outputs": [],
            "stateMutability": "nonpayable",
            "type": "function"
        },
        {
            "inputs": [
                {
                    "internalType": "address",
                    "name": "from",
                    "type": "address"
                },
                {
                    "internalType": "address",
                    "name": "to",
                    "type": "address"
                },
                {
                    "internalType": "uint256",
                    "name": "tokenId",
                    "type": "uint256"
                },
                {
                    "internalType": "bytes",
                    "name": "_data",
                    "type": "bytes"
                }
            ],
            "name": "safeTransferFrom",
            "outputs": [],
            "stateMutability": "nonpayable",
            "type": "function"
        },
        {
            "inputs": [],
            "name": "saleActive",
            "outputs": [
                {
                    "internalType": "bool",
                    "name": "",
                    "type": "bool"
                }
            ],
            "stateMutability": "view",
            "type": "function",
            "constant": true
        },
        {
            "inputs": [
                {
                    "internalType": "address",
                    "name": "operator",
                    "type": "address"
                },
                {
                    "internalType": "bool",
                    "name": "approved",
                    "type": "bool"
                }
            ],
            "name": "setApprovalForAll",
            "outputs": [],
            "stateMutability": "nonpayable",
            "type": "function"
        },
        {
            "inputs": [
                {
                    "internalType": "bytes4",
                    "name": "interfaceId",
                    "type": "bytes4"
                }
            ],
            "name": "supportsInterface",
            "outputs": [
                {
                    "internalType": "bool",
                    "name": "",
                    "type": "bool"
                }
            ],
            "stateMutability": "view",
            "type": "function",
            "constant": true
        },
        {
            "inputs": [],
            "name": "symbol",
            "outputs": [
                {
                    "internalType": "string",
                    "name": "",
                    "type": "string"
                }
            ],
            "stateMutability": "view",
            "type": "function",
            "constant": true
        },
        {
            "inputs": [
                {
                    "internalType": "uint256",
                    "name": "index",
                    "type": "uint256"
                }
            ],
            "name": "tokenByIndex",
            "outputs": [
                {
                    "internalType": "uint256",
                    "name": "",
                    "type": "uint256"
                }
            ],
            "stateMutability": "view",
            "type": "function",
            "constant": true
        },
        {
            "inputs": [
                {
                    "internalType": "address",
                    "name": "owner",
                    "type": "address"
                },
                {
                    "internalType": "uint256",
                    "name": "index",
                    "type": "uint256"
                }
            ],
            "name": "tokenOfOwnerByIndex",
            "outputs": [
                {
                    "internalType": "uint256",
                    "name": "",
                    "type": "uint256"
                }
            ],
            "stateMutability": "view",
            "type": "function",
            "constant": true
        },
        {
            "inputs": [
                {
                    "internalType": "uint256",
                    "name": "tokenId",
                    "type": "uint256"
                }
            ],
            "name": "tokenURI",
            "outputs": [
                {
                    "internalType": "string",
                    "name": "",
                    "type": "string"
                }
            ],
            "stateMutability": "view",
            "type": "function",
            "constant": true
        },
        {
            "inputs": [],
            "name": "totalSupply",
            "outputs": [
                {
                    "internalType": "uint256",
                    "name": "",
                    "type": "uint256"
                }
            ],
            "stateMutability": "view",
            "type": "function",
            "constant": true
        },
        {
            "inputs": [
                {
                    "internalType": "address",
                    "name": "from",
                    "type": "address"
                },
                {
                    "internalType": "address",
                    "name": "to",
                    "type": "address"
                },
                {
                    "internalType": "uint256",
                    "name": "tokenId",
                    "type": "uint256"
                }
            ],
            "name": "transferFrom",
            "outputs": [],
            "stateMutability": "nonpayable",
            "type": "function"
        },
        {
            "inputs": [
                {
                    "internalType": "address",
                    "name": "newOwner",
                    "type": "address"
                }
            ],
            "name": "transferOwnership",
            "outputs": [],
            "stateMutability": "nonpayable",
            "type": "function"
        },
        {
            "inputs": [
                {
                    "internalType": "address",
                    "name": "addr",
                    "type": "address"
                }
            ],
            "name": "tokensOfOwner",
            "outputs": [
                {
                    "internalType": "uint256[]",
                    "name": "",
                    "type": "uint256[]"
                }
            ],
            "stateMutability": "view",
            "type": "function",
            "constant": true
        },
        {
            "inputs": [
                {
                    "internalType": "uint256",
                    "name": "_amount",
                    "type": "uint256"
                }
            ],
            "name": "mintToken",
            "outputs": [],
            "stateMutability": "payable",
            "type": "function",
            "payable": true
        },
        {
            "inputs": [
                {
                    "internalType": "bool",
                    "name": "val",
                    "type": "bool"
                }
            ],
            "name": "setSaleActive",
            "outputs": [],
            "stateMutability": "nonpayable",
            "type": "function"
        },
        {
            "inputs": [
                {
                    "internalType": "string",
                    "name": "baseURI",
                    "type": "string"
                }
            ],
            "name": "setBaseURI",
            "outputs": [],
            "stateMutability": "nonpayable",
            "type": "function"
        },
        {
            "inputs": [
                {
                    "internalType": "uint256",
                    "name": "newPrice",
                    "type": "uint256"
                }
            ],
            "name": "setPrice",
            "outputs": [],
            "stateMutability": "nonpayable",
            "type": "function"
        },
        {
            "inputs": [],
            "name": "withdraw",
            "outputs": [],
            "stateMutability": "payable",
            "type": "function",
            "payable": true
        }
    ],
    "bytecode": "0x60806040526000600a60146101000a81548160ff02191690831515021790555068015af1d78b58c40000600b556040518060400160405280601781526020017f687474703a2f2f3133372e3138342e3231362e3138332f000000000000000000815250600d90805190602001906200007992919062000225565b503480156200008757600080fd5b506040518060400160405280602081526020017f506f6e696e697320416c6d6967687479204c696d697465642045646974696f6e8152506040518060400160405280600481526020017f50414c450000000000000000000000000000000000000000000000000000000081525081600090805190602001906200010c92919062000225565b5080600190805190602001906200012592919062000225565b505050620001486200013c6200015760201b60201c565b6200015f60201b60201c565b600b54600c819055506200033a565b600033905090565b6000600a60009054906101000a900473ffffffffffffffffffffffffffffffffffffffff16905081600a60006101000a81548173ffffffffffffffffffffffffffffffffffffffff021916908373ffffffffffffffffffffffffffffffffffffffff1602179055508173ffffffffffffffffffffffffffffffffffffffff168173ffffffffffffffffffffffffffffffffffffffff167f8be0079c531659141344cd1fd0a4f28419497f9722a3daafe3b4186f6b6457e060405160405180910390a35050565b828054620002339062000304565b90600052602060002090601f016020900481019282620002575760008555620002a3565b82601f106200027257805160ff1916838001178555620002a3565b82800160010185558215620002a3579182015b82811115620002a257825182559160200191906001019062000285565b5b509050620002b29190620002b6565b5090565b5b80821115620002d1576000816000905550600101620002b7565b5090565b7f4e487b7100000000000000000000000000000000000000000000000000000000600052602260045260246000fd5b600060028204905060018216806200031d57607f821691505b60208210811415620003345762000333620002d5565b5b50919050565b6140a3806200034a6000396000f3fe6080604052600436106101d85760003560e01c8063715018a611610102578063a22cb46511610095578063c87b56dd11610064578063c87b56dd14610690578063d547cfb7146106cd578063e985e9c5146106f8578063f2fde38b14610735576101d8565b8063a22cb465146105f7578063ab3f5a1a14610620578063b88d4fde1461064b578063c634d03214610674576101d8565b80638ecad721116100d15780638ecad7211461054d57806391b7f5ed1461057857806395d89b41146105a1578063a035b1fe146105cc576101d8565b8063715018a6146104a5578063841718a6146104bc5780638462151c146104e55780638da5cb5b14610522576101d8565b806332cb6b0c1161017a57806355f804b31161014957806355f804b3146103d75780636352211e1461040057806368428a1b1461043d57806370a0823114610468576101d8565b806332cb6b0c1461033c5780633ccfd60b1461036757806342842e0e146103715780634f6ccce71461039a576101d8565b8063095ea7b3116101b6578063095ea7b31461028257806318160ddd146102ab57806323b872dd146102d65780632f745c59146102ff576101d8565b806301ffc9a7146101dd57806306fdde031461021a578063081812fc14610245575b600080fd5b3480156101e957600080fd5b5061020460048036038101906101ff91906129ae565b61075e565b60405161021191906129f6565b60405180910390f35b34801561022657600080fd5b5061022f6107d8565b60405161023c9190612aaa565b60405180910390f35b34801561025157600080fd5b5061026c60048036038101906102679190612b02565b61086a565b6040516102799190612b70565b60405180910390f35b34801561028e57600080fd5b506102a960048036038101906102a49190612bb7565b6108ef565b005b3480156102b757600080fd5b506102c0610a07565b6040516102cd9190612c06565b60405180910390f35b3480156102e257600080fd5b506102fd60048036038101906102f89190612c21565b610a14565b005b34801561030b57600080fd5b5061032660048036038101906103219190612bb7565b610a74565b6040516103339190612c06565b60405180910390f35b34801561034857600080fd5b50610351610b19565b60405161035e9190612c06565b60405180910390f35b61036f610b1e565b005b34801561037d57600080fd5b5061039860048036038101906103939190612c21565b610bda565b005b3480156103a657600080fd5b506103c160048036038101906103bc9190612b02565b610bfa565b6040516103ce9190612c06565b60405180910390f35b3480156103e357600080fd5b506103fe60048036038101906103f99190612da9565b610c6b565b005b34801561040c57600080fd5b5061042760048036038101906104229190612b02565b610d01565b6040516104349190612b70565b60405180910390f35b34801561044957600080fd5b50610452610db3565b60405161045f91906129f6565b60405180910390f35b34801561047457600080fd5b5061048f600480360381019061048a9190612df2565b610dc6565b60405161049c9190612c06565b60405180910390f35b3480156104b157600080fd5b506104ba610e7e565b005b3480156104c857600080fd5b506104e360048036038101906104de9190612e4b565b610f06565b005b3480156104f157600080fd5b5061050c60048036038101906105079190612df2565b610f9f565b6040516105199190612f36565b60405180910390f35b34801561052e57600080fd5b5061053761104d565b6040516105449190612b70565b60405180910390f35b34801561055957600080fd5b50610562611077565b60405161056f9190612c06565b60405180910390f35b34801561058457600080fd5b5061059f600480360381019061059a9190612b02565b61107c565b005b3480156105ad57600080fd5b506105b6611102565b6040516105c39190612aaa565b60405180910390f35b3480156105d857600080fd5b506105e1611194565b6040516105ee9190612c06565b60405180910390f35b34801561060357600080fd5b5061061e60048036038101906106199190612f58565b61119a565b005b34801561062c57600080fd5b506106356111b0565b6040516106429190612c06565b60405180910390f35b34801561065757600080fd5b50610672600480360381019061066d9190613039565b6111b6565b005b61068e60048036038101906106899190612b02565b611218565b005b34801561069c57600080fd5b506106b760048036038101906106b29190612b02565b611399565b6040516106c49190612aaa565b60405180910390f35b3480156106d957600080fd5b506106e2611440565b6040516106ef9190612aaa565b60405180910390f35b34801561070457600080fd5b5061071f600480360381019061071a91906130bc565b6114ce565b60405161072c91906129f6565b60405180910390f35b34801561074157600080fd5b5061075c60048036038101906107579190612df2565b611562565b005b60007f780e9d63000000000000000000000000000000000000000000000000000000007bffffffffffffffffffffffffffffffffffffffffffffffffffffffff1916827bffffffffffffffffffffffffffffffffffffffffffffffffffffffff191614806107d157506107d08261165a565b5b9050919050565b6060600080546107e79061312b565b80601f01602080910402602001604051908101604052809291908181526020018280546108139061312b565b80156108605780601f1061083557610100808354040283529160200191610860565b820191906000526020600020905b81548152906001019060200180831161084357829003601f168201915b5050505050905090565b60006108758261173c565b6108b4576040517f08c379a00000000000000000000000000000000000000000000000000000000081526004016108ab906131cf565b60405180910390fd5b6004600083815260200190815260200160002060009054906101000a900473ffffffffffffffffffffffffffffffffffffffff169050919050565b60006108fa82610d01565b90508073ffffffffffffffffffffffffffffffffffffffff168373ffffffffffffffffffffffffffffffffffffffff16141561096b576040517f08c379a000000000000000000000000000000000000000000000000000000000815260040161096290613261565b60405180910390fd5b8073ffffffffffffffffffffffffffffffffffffffff1661098a6117a8565b73ffffffffffffffffffffffffffffffffffffffff1614806109b957506109b8816109b36117a8565b6114ce565b5b6109f8576040517f08c379a00000000000000000000000000000000000000000000000000000000081526004016109ef906132f3565b60405180910390fd5b610a0283836117b0565b505050565b6000600880549050905090565b610a25610a1f6117a8565b82611869565b610a64576040517f08c379a0000000000000000000000000000000000000000000000000000000008152600401610a5b90613385565b60405180910390fd5b610a6f838383611947565b505050565b6000610a7f83610dc6565b8210610ac0576040517f08c379a0000000000000000000000000000000000000000000000000000000008152600401610ab790613417565b60405180910390fd5b600660008473ffffffffffffffffffffffffffffffffffffffff1673ffffffffffffffffffffffffffffffffffffffff168152602001908152602001600020600083815260200190815260200160002054905092915050565b600a81565b610b266117a8565b73ffffffffffffffffffffffffffffffffffffffff16610b4461104d565b73ffffffffffffffffffffffffffffffffffffffff1614610b9a576040517f08c379a0000000000000000000000000000000000000000000000000000000008152600401610b9190613483565b60405180910390fd5b3373ffffffffffffffffffffffffffffffffffffffff166108fc479081150290604051600060405180830381858888f19350505050610bd857600080fd5b565b610bf5838383604051806020016040528060008152506111b6565b505050565b6000610c04610a07565b8210610c45576040517f08c379a0000000000000000000000000000000000000000000000000000000008152600401610c3c90613515565b60405180910390fd5b60088281548110610c5957610c58613535565b5b90600052602060002001549050919050565b610c736117a8565b73ffffffffffffffffffffffffffffffffffffffff16610c9161104d565b73ffffffffffffffffffffffffffffffffffffffff1614610ce7576040517f08c379a0000000000000000000000000000000000000000000000000000000008152600401610cde90613483565b60405180910390fd5b80600d9080519060200190610cfd92919061289f565b5050565b6000806002600084815260200190815260200160002060009054906101000a900473ffffffffffffffffffffffffffffffffffffffff169050600073ffffffffffffffffffffffffffffffffffffffff168173ffffffffffffffffffffffffffffffffffffffff161415610daa576040517f08c379a0000000000000000000000000000000000000000000000000000000008152600401610da1906135d6565b60405180910390fd5b80915050919050565b600a60149054906101000a900460ff1681565b60008073ffffffffffffffffffffffffffffffffffffffff168273ffffffffffffffffffffffffffffffffffffffff161415610e37576040517f08c379a0000000000000000000000000000000000000000000000000000000008152600401610e2e90613668565b60405180910390fd5b600360008373ffffffffffffffffffffffffffffffffffffffff1673ffffffffffffffffffffffffffffffffffffffff168152602001908152602001600020549050919050565b610e866117a8565b73ffffffffffffffffffffffffffffffffffffffff16610ea461104d565b73ffffffffffffffffffffffffffffffffffffffff1614610efa576040517f08c379a0000000000000000000000000000000000000000000000000000000008152600401610ef190613483565b60405180910390fd5b610f046000611ba3565b565b610f0e6117a8565b73ffffffffffffffffffffffffffffffffffffffff16610f2c61104d565b73ffffffffffffffffffffffffffffffffffffffff1614610f82576040517f08c379a0000000000000000000000000000000000000000000000000000000008152600401610f7990613483565b60405180910390fd5b80600a60146101000a81548160ff02191690831515021790555050565b60606000610fac83610dc6565b905060008167ffffffffffffffff811115610fca57610fc9612c7e565b5b604051908082528060200260200182016040528015610ff85781602001602082028036833780820191505090505b50905060005b82811015611042576110108582610a74565b82828151811061102357611022613535565b5b602002602001018181525050808061103a906136b7565b915050610ffe565b508092505050919050565b6000600a60009054906101000a900473ffffffffffffffffffffffffffffffffffffffff16905090565b600181565b6110846117a8565b73ffffffffffffffffffffffffffffffffffffffff166110a261104d565b73ffffffffffffffffffffffffffffffffffffffff16146110f8576040517f08c379a00000000000000000000000000000000000000000000000000000000081526004016110ef90613483565b60405180910390fd5b80600c8190555050565b6060600180546111119061312b565b80601f016020809104026020016040519081016040528092919081815260200182805461113d9061312b565b801561118a5780601f1061115f5761010080835404028352916020019161118a565b820191906000526020600020905b81548152906001019060200180831161116d57829003601f168201915b5050505050905090565b600c5481565b6111ac6111a56117a8565b8383611c69565b5050565b600b5481565b6111c76111c16117a8565b83611869565b611206576040517f08c379a00000000000000000000000000000000000000000000000000000000081526004016111fd90613385565b60405180910390fd5b61121284848484611dd6565b50505050565b6000611222610a07565b9050600a60149054906101000a900460ff16611273576040517f08c379a000000000000000000000000000000000000000000000000000000000815260040161126a9061374c565b60405180910390fd5b600082118015611284575060018211155b6112c3576040517f08c379a00000000000000000000000000000000000000000000000000000000081526004016112ba906137de565b60405180910390fd5b600a82826112d191906137fe565b1115611312576040517f08c379a0000000000000000000000000000000000000000000000000000000008152600401611309906138a0565b60405180910390fd5b81600c5461132091906138c0565b3414611361576040517f08c379a000000000000000000000000000000000000000000000000000000000815260040161135890613966565b60405180910390fd5b60005b828110156113945761138133828461137c91906137fe565b611e32565b808061138c906136b7565b915050611364565b505050565b60606113a48261173c565b6113e3576040517f08c379a00000000000000000000000000000000000000000000000000000000081526004016113da906139f8565b60405180910390fd5b60006113ed611e50565b9050600081511161140d5760405180602001604052806000815250611438565b8061141784611ee2565b604051602001611428929190613a54565b6040516020818303038152906040525b915050919050565b600d805461144d9061312b565b80601f01602080910402602001604051908101604052809291908181526020018280546114799061312b565b80156114c65780601f1061149b576101008083540402835291602001916114c6565b820191906000526020600020905b8154815290600101906020018083116114a957829003601f168201915b505050505081565b6000600560008473ffffffffffffffffffffffffffffffffffffffff1673ffffffffffffffffffffffffffffffffffffffff16815260200190815260200160002060008373ffffffffffffffffffffffffffffffffffffffff1673ffffffffffffffffffffffffffffffffffffffff16815260200190815260200160002060009054906101000a900460ff16905092915050565b61156a6117a8565b73ffffffffffffffffffffffffffffffffffffffff1661158861104d565b73ffffffffffffffffffffffffffffffffffffffff16146115de576040517f08c379a00000000000000000000000000000000000000000000000000000000081526004016115d590613483565b60405180910390fd5b600073ffffffffffffffffffffffffffffffffffffffff168173ffffffffffffffffffffffffffffffffffffffff16141561164e576040517f08c379a000000000000000000000000000000000000000000000000000000000815260040161164590613aea565b60405180910390fd5b61165781611ba3565b50565b60007f80ac58cd000000000000000000000000000000000000000000000000000000007bffffffffffffffffffffffffffffffffffffffffffffffffffffffff1916827bffffffffffffffffffffffffffffffffffffffffffffffffffffffff1916148061172557507f5b5e139f000000000000000000000000000000000000000000000000000000007bffffffffffffffffffffffffffffffffffffffffffffffffffffffff1916827bffffffffffffffffffffffffffffffffffffffffffffffffffffffff1916145b80611735575061173482612043565b5b9050919050565b60008073ffffffffffffffffffffffffffffffffffffffff166002600084815260200190815260200160002060009054906101000a900473ffffffffffffffffffffffffffffffffffffffff1673ffffffffffffffffffffffffffffffffffffffff1614159050919050565b600033905090565b816004600083815260200190815260200160002060006101000a81548173ffffffffffffffffffffffffffffffffffffffff021916908373ffffffffffffffffffffffffffffffffffffffff160217905550808273ffffffffffffffffffffffffffffffffffffffff1661182383610d01565b73ffffffffffffffffffffffffffffffffffffffff167f8c5be1e5ebec7d5bd14f71427d1e84f3dd0314c0f7b2291e5b200ac8c7c3b92560405160405180910390a45050565b60006118748261173c565b6118b3576040517f08c379a00000000000000000000000000000000000000000000000000000000081526004016118aa90613b7c565b60405180910390fd5b60006118be83610d01565b90508073ffffffffffffffffffffffffffffffffffffffff168473ffffffffffffffffffffffffffffffffffffffff16148061192d57508373ffffffffffffffffffffffffffffffffffffffff166119158461086a565b73ffffffffffffffffffffffffffffffffffffffff16145b8061193e575061193d81856114ce565b5b91505092915050565b8273ffffffffffffffffffffffffffffffffffffffff1661196782610d01565b73ffffffffffffffffffffffffffffffffffffffff16146119bd576040517f08c379a00000000000000000000000000000000000000000000000000000000081526004016119b490613c0e565b60405180910390fd5b600073ffffffffffffffffffffffffffffffffffffffff168273ffffffffffffffffffffffffffffffffffffffff161415611a2d576040517f08c379a0000000000000000000000000000000000000000000000000000000008152600401611a2490613ca0565b60405180910390fd5b611a388383836120ad565b611a436000826117b0565b6001600360008573ffffffffffffffffffffffffffffffffffffffff1673ffffffffffffffffffffffffffffffffffffffff1681526020019081526020016000206000828254611a939190613cc0565b925050819055506001600360008473ffffffffffffffffffffffffffffffffffffffff1673ffffffffffffffffffffffffffffffffffffffff1681526020019081526020016000206000828254611aea91906137fe565b92505081905550816002600083815260200190815260200160002060006101000a81548173ffffffffffffffffffffffffffffffffffffffff021916908373ffffffffffffffffffffffffffffffffffffffff160217905550808273ffffffffffffffffffffffffffffffffffffffff168473ffffffffffffffffffffffffffffffffffffffff167fddf252ad1be2c89b69c2b068fc378daa952ba7f163c4a11628f55a4df523b3ef60405160405180910390a4505050565b6000600a60009054906101000a900473ffffffffffffffffffffffffffffffffffffffff16905081600a60006101000a81548173ffffffffffffffffffffffffffffffffffffffff021916908373ffffffffffffffffffffffffffffffffffffffff1602179055508173ffffffffffffffffffffffffffffffffffffffff168173ffffffffffffffffffffffffffffffffffffffff167f8be0079c531659141344cd1fd0a4f28419497f9722a3daafe3b4186f6b6457e060405160405180910390a35050565b8173ffffffffffffffffffffffffffffffffffffffff168373ffffffffffffffffffffffffffffffffffffffff161415611cd8576040517f08c379a0000000000000000000000000000000000000000000000000000000008152600401611ccf90613d40565b60405180910390fd5b80600560008573ffffffffffffffffffffffffffffffffffffffff1673ffffffffffffffffffffffffffffffffffffffff16815260200190815260200160002060008473ffffffffffffffffffffffffffffffffffffffff1673ffffffffffffffffffffffffffffffffffffffff16815260200190815260200160002060006101000a81548160ff0219169083151502179055508173ffffffffffffffffffffffffffffffffffffffff168373ffffffffffffffffffffffffffffffffffffffff167f17307eab39ab6107e8899845ad3d59bd9653f200f220920489ca2b5937696c3183604051611dc991906129f6565b60405180910390a3505050565b611de1848484611947565b611ded848484846121c1565b611e2c576040517f08c379a0000000000000000000000000000000000000000000000000000000008152600401611e2390613dd2565b60405180910390fd5b50505050565b611e4c828260405180602001604052806000815250612358565b5050565b6060600d8054611e5f9061312b565b80601f0160208091040260200160405190810160405280929190818152602001828054611e8b9061312b565b8015611ed85780601f10611ead57610100808354040283529160200191611ed8565b820191906000526020600020905b815481529060010190602001808311611ebb57829003601f168201915b5050505050905090565b60606000821415611f2a576040518060400160405280600181526020017f3000000000000000000000000000000000000000000000000000000000000000815250905061203e565b600082905060005b60008214611f5c578080611f45906136b7565b915050600a82611f559190613e21565b9150611f32565b60008167ffffffffffffffff811115611f7857611f77612c7e565b5b6040519080825280601f01601f191660200182016040528015611faa5781602001600182028036833780820191505090505b5090505b6000851461203757600182611fc39190613cc0565b9150600a85611fd29190613e52565b6030611fde91906137fe565b60f81b818381518110611ff457611ff3613535565b5b60200101907effffffffffffffffffffffffffffffffffffffffffffffffffffffffffffff1916908160001a905350600a856120309190613e21565b9450611fae565b8093505050505b919050565b60007f01ffc9a7000000000000000000000000000000000000000000000000000000007bffffffffffffffffffffffffffffffffffffffffffffffffffffffff1916827bffffffffffffffffffffffffffffffffffffffffffffffffffffffff1916149050919050565b6120b88383836123b3565b600073ffffffffffffffffffffffffffffffffffffffff168373ffffffffffffffffffffffffffffffffffffffff1614156120fb576120f6816123b8565b61213a565b8173ffffffffffffffffffffffffffffffffffffffff168373ffffffffffffffffffffffffffffffffffffffff1614612139576121388382612401565b5b5b600073ffffffffffffffffffffffffffffffffffffffff168273ffffffffffffffffffffffffffffffffffffffff16141561217d576121788161256e565b6121bc565b8273ffffffffffffffffffffffffffffffffffffffff168273ffffffffffffffffffffffffffffffffffffffff16146121bb576121ba828261263f565b5b5b505050565b60006121e28473ffffffffffffffffffffffffffffffffffffffff166126be565b1561234b578373ffffffffffffffffffffffffffffffffffffffff1663150b7a0261220b6117a8565b8786866040518563ffffffff1660e01b815260040161222d9493929190613ed8565b602060405180830381600087803b15801561224757600080fd5b505af192505050801561227857506040513d601f19601f820116820180604052508101906122759190613f39565b60015b6122fb573d80600081146122a8576040519150601f19603f3d011682016040523d82523d6000602084013e6122ad565b606091505b506000815114156122f3576040517f08c379a00000000000000000000000000000000000000000000000000000000081526004016122ea90613dd2565b60405180910390fd5b805181602001fd5b63150b7a0260e01b7bffffffffffffffffffffffffffffffffffffffffffffffffffffffff1916817bffffffffffffffffffffffffffffffffffffffffffffffffffffffff191614915050612350565b600190505b949350505050565b61236283836126d1565b61236f60008484846121c1565b6123ae576040517f08c379a00000000000000000000000000000000000000000000000000000000081526004016123a590613dd2565b60405180910390fd5b505050565b505050565b6008805490506009600083815260200190815260200160002081905550600881908060018154018082558091505060019003906000526020600020016000909190919091505550565b6000600161240e84610dc6565b6124189190613cc0565b90506000600760008481526020019081526020016000205490508181146124fd576000600660008673ffffffffffffffffffffffffffffffffffffffff1673ffffffffffffffffffffffffffffffffffffffff168152602001908152602001600020600084815260200190815260200160002054905080600660008773ffffffffffffffffffffffffffffffffffffffff1673ffffffffffffffffffffffffffffffffffffffff168152602001908152602001600020600084815260200190815260200160002081905550816007600083815260200190815260200160002081905550505b6007600084815260200190815260200160002060009055600660008573ffffffffffffffffffffffffffffffffffffffff1673ffffffffffffffffffffffffffffffffffffffff16815260200190815260200160002060008381526020019081526020016000206000905550505050565b600060016008805490506125829190613cc0565b90506000600960008481526020019081526020016000205490506000600883815481106125b2576125b1613535565b5b9060005260206000200154905080600883815481106125d4576125d3613535565b5b90600052602060002001819055508160096000838152602001908152602001600020819055506009600085815260200190815260200160002060009055600880548061262357612622613f66565b5b6001900381819060005260206000200160009055905550505050565b600061264a83610dc6565b905081600660008573ffffffffffffffffffffffffffffffffffffffff1673ffffffffffffffffffffffffffffffffffffffff168152602001908152602001600020600083815260200190815260200160002081905550806007600084815260200190815260200160002081905550505050565b600080823b905060008111915050919050565b600073ffffffffffffffffffffffffffffffffffffffff168273ffffffffffffffffffffffffffffffffffffffff161415612741576040517f08c379a000000000000000000000000000000000000000000000000000000000815260040161273890613fe1565b60405180910390fd5b61274a8161173c565b1561278a576040517f08c379a00000000000000000000000000000000000000000000000000000000081526004016127819061404d565b60405180910390fd5b612796600083836120ad565b6001600360008473ffffffffffffffffffffffffffffffffffffffff1673ffffffffffffffffffffffffffffffffffffffff16815260200190815260200160002060008282546127e691906137fe565b92505081905550816002600083815260200190815260200160002060006101000a81548173ffffffffffffffffffffffffffffffffffffffff021916908373ffffffffffffffffffffffffffffffffffffffff160217905550808273ffffffffffffffffffffffffffffffffffffffff16600073ffffffffffffffffffffffffffffffffffffffff167fddf252ad1be2c89b69c2b068fc378daa952ba7f163c4a11628f55a4df523b3ef60405160405180910390a45050565b8280546128ab9061312b565b90600052602060002090601f0160209004810192826128cd5760008555612914565b82601f106128e657805160ff1916838001178555612914565b82800160010185558215612914579182015b828111156129135782518255916020019190600101906128f8565b5b5090506129219190612925565b5090565b5b8082111561293e576000816000905550600101612926565b5090565b6000604051905090565b600080fd5b600080fd5b60007fffffffff0000000000000000000000000000000000000000000000000000000082169050919050565b61298b81612956565b811461299657600080fd5b50565b6000813590506129a881612982565b92915050565b6000602082840312156129c4576129c361294c565b5b60006129d284828501612999565b91505092915050565b60008115159050919050565b6129f0816129db565b82525050565b6000602082019050612a0b60008301846129e7565b92915050565b600081519050919050565b600082825260208201905092915050565b60005b83811015612a4b578082015181840152602081019050612a30565b83811115612a5a576000848401525b50505050565b6000601f19601f8301169050919050565b6000612a7c82612a11565b612a868185612a1c565b9350612a96818560208601612a2d565b612a9f81612a60565b840191505092915050565b60006020820190508181036000830152612ac48184612a71565b905092915050565b6000819050919050565b612adf81612acc565b8114612aea57600080fd5b50565b600081359050612afc81612ad6565b92915050565b600060208284031215612b1857612b1761294c565b5b6000612b2684828501612aed565b91505092915050565b600073ffffffffffffffffffffffffffffffffffffffff82169050919050565b6000612b5a82612b2f565b9050919050565b612b6a81612b4f565b82525050565b6000602082019050612b856000830184612b61565b92915050565b612b9481612b4f565b8114612b9f57600080fd5b50565b600081359050612bb181612b8b565b92915050565b60008060408385031215612bce57612bcd61294c565b5b6000612bdc85828601612ba2565b9250506020612bed85828601612aed565b9150509250929050565b612c0081612acc565b82525050565b6000602082019050612c1b6000830184612bf7565b92915050565b600080600060608486031215612c3a57612c3961294c565b5b6000612c4886828701612ba2565b9350506020612c5986828701612ba2565b9250506040612c6a86828701612aed565b9150509250925092565b600080fd5b600080fd5b7f4e487b7100000000000000000000000000000000000000000000000000000000600052604160045260246000fd5b612cb682612a60565b810181811067ffffffffffffffff82111715612cd557612cd4612c7e565b5b80604052505050565b6000612ce8612942565b9050612cf48282612cad565b919050565b600067ffffffffffffffff821115612d1457612d13612c7e565b5b612d1d82612a60565b9050602081019050919050565b82818337600083830152505050565b6000612d4c612d4784612cf9565b612cde565b905082815260208101848484011115612d6857612d67612c79565b5b612d73848285612d2a565b509392505050565b600082601f830112612d9057612d8f612c74565b5b8135612da0848260208601612d39565b91505092915050565b600060208284031215612dbf57612dbe61294c565b5b600082013567ffffffffffffffff811115612ddd57612ddc612951565b5b612de984828501612d7b565b91505092915050565b600060208284031215612e0857612e0761294c565b5b6000612e1684828501612ba2565b91505092915050565b612e28816129db565b8114612e3357600080fd5b50565b600081359050612e4581612e1f565b92915050565b600060208284031215612e6157612e6061294c565b5b6000612e6f84828501612e36565b91505092915050565b600081519050919050565b600082825260208201905092915050565b6000819050602082019050919050565b612ead81612acc565b82525050565b6000612ebf8383612ea4565b60208301905092915050565b6000602082019050919050565b6000612ee382612e78565b612eed8185612e83565b9350612ef883612e94565b8060005b83811015612f29578151612f108882612eb3565b9750612f1b83612ecb565b925050600181019050612efc565b5085935050505092915050565b60006020820190508181036000830152612f508184612ed8565b905092915050565b60008060408385031215612f6f57612f6e61294c565b5b6000612f7d85828601612ba2565b9250506020612f8e85828601612e36565b9150509250929050565b600067ffffffffffffffff821115612fb357612fb2612c7e565b5b612fbc82612a60565b9050602081019050919050565b6000612fdc612fd784612f98565b612cde565b905082815260208101848484011115612ff857612ff7612c79565b5b613003848285612d2a565b509392505050565b600082601f8301126130205761301f612c74565b5b8135613030848260208601612fc9565b91505092915050565b600080600080608085870312156130535761305261294c565b5b600061306187828801612ba2565b945050602061307287828801612ba2565b935050604061308387828801612aed565b925050606085013567ffffffffffffffff8111156130a4576130a3612951565b5b6130b08782880161300b565b91505092959194509250565b600080604083850312156130d3576130d261294c565b5b60006130e185828601612ba2565b92505060206130f285828601612ba2565b9150509250929050565b7f4e487b7100000000000000000000000000000000000000000000000000000000600052602260045260246000fd5b6000600282049050600182168061314357607f821691505b60208210811415613157576131566130fc565b5b50919050565b7f4552433732313a20617070726f76656420717565727920666f72206e6f6e657860008201527f697374656e7420746f6b656e0000000000000000000000000000000000000000602082015250565b60006131b9602c83612a1c565b91506131c48261315d565b604082019050919050565b600060208201905081810360008301526131e8816131ac565b9050919050565b7f4552433732313a20617070726f76616c20746f2063757272656e74206f776e6560008201527f7200000000000000000000000000000000000000000000000000000000000000602082015250565b600061324b602183612a1c565b9150613256826131ef565b604082019050919050565b6000602082019050818103600083015261327a8161323e565b9050919050565b7f4552433732313a20617070726f76652063616c6c6572206973206e6f74206f7760008201527f6e6572206e6f7220617070726f76656420666f7220616c6c0000000000000000602082015250565b60006132dd603883612a1c565b91506132e882613281565b604082019050919050565b6000602082019050818103600083015261330c816132d0565b9050919050565b7f4552433732313a207472616e736665722063616c6c6572206973206e6f74206f60008201527f776e6572206e6f7220617070726f766564000000000000000000000000000000602082015250565b600061336f603183612a1c565b915061337a82613313565b604082019050919050565b6000602082019050818103600083015261339e81613362565b9050919050565b7f455243373231456e756d657261626c653a206f776e657220696e646578206f7560008201527f74206f6620626f756e6473000000000000000000000000000000000000000000602082015250565b6000613401602b83612a1c565b915061340c826133a5565b604082019050919050565b60006020820190508181036000830152613430816133f4565b9050919050565b7f4f776e61626c653a2063616c6c6572206973206e6f7420746865206f776e6572600082015250565b600061346d602083612a1c565b915061347882613437565b602082019050919050565b6000602082019050818103600083015261349c81613460565b9050919050565b7f455243373231456e756d657261626c653a20676c6f62616c20696e646578206f60008201527f7574206f6620626f756e64730000000000000000000000000000000000000000602082015250565b60006134ff602c83612a1c565b915061350a826134a3565b604082019050919050565b6000602082019050818103600083015261352e816134f2565b9050919050565b7f4e487b7100000000000000000000000000000000000000000000000000000000600052603260045260246000fd5b7f4552433732313a206f776e657220717565727920666f72206e6f6e657869737460008201527f656e7420746f6b656e0000000000000000000000000000000000000000000000602082015250565b60006135c0602983612a1c565b91506135cb82613564565b604082019050919050565b600060208201905081810360008301526135ef816135b3565b9050919050565b7f4552433732313a2062616c616e636520717565727920666f7220746865207a6560008201527f726f206164647265737300000000000000000000000000000000000000000000602082015250565b6000613652602a83612a1c565b915061365d826135f6565b604082019050919050565b6000602082019050818103600083015261368181613645565b9050919050565b7f4e487b7100000000000000000000000000000000000000000000000000000000600052601160045260246000fd5b60006136c282612acc565b91507fffffffffffffffffffffffffffffffffffffffffffffffffffffffffffffffff8214156136f5576136f4613688565b5b600182019050919050565b7f53616c652069736e277420616374697665000000000000000000000000000000600082015250565b6000613736601183612a1c565b915061374182613700565b602082019050919050565b6000602082019050818103600083015261376581613729565b9050919050565b7f43616e206f6e6c79206d696e74206265747765656e203120616e64203520746f60008201527f6b656e73206174206f6e63650000000000000000000000000000000000000000602082015250565b60006137c8602c83612a1c565b91506137d38261376c565b604082019050919050565b600060208201905081810360008301526137f7816137bb565b9050919050565b600061380982612acc565b915061381483612acc565b9250827fffffffffffffffffffffffffffffffffffffffffffffffffffffffffffffffff0382111561384957613848613688565b5b828201905092915050565b7f43616e2774206d696e74206d6f7265207468616e206d617820737570706c7900600082015250565b600061388a601f83612a1c565b915061389582613854565b602082019050919050565b600060208201905081810360008301526138b98161387d565b9050919050565b60006138cb82612acc565b91506138d683612acc565b9250817fffffffffffffffffffffffffffffffffffffffffffffffffffffffffffffffff048311821515161561390f5761390e613688565b5b828202905092915050565b7f57726f6e6720616d6f756e74206f66204d415449432073656e74000000000000600082015250565b6000613950601a83612a1c565b915061395b8261391a565b602082019050919050565b6000602082019050818103600083015261397f81613943565b9050919050565b7f4552433732314d657461646174613a2055524920717565727920666f72206e6f60008201527f6e6578697374656e7420746f6b656e0000000000000000000000000000000000602082015250565b60006139e2602f83612a1c565b91506139ed82613986565b604082019050919050565b60006020820190508181036000830152613a11816139d5565b9050919050565b600081905092915050565b6000613a2e82612a11565b613a388185613a18565b9350613a48818560208601612a2d565b80840191505092915050565b6000613a608285613a23565b9150613a6c8284613a23565b91508190509392505050565b7f4f776e61626c653a206e6577206f776e657220697320746865207a65726f206160008201527f6464726573730000000000000000000000000000000000000000000000000000602082015250565b6000613ad4602683612a1c565b9150613adf82613a78565b604082019050919050565b60006020820190508181036000830152613b0381613ac7565b9050919050565b7f4552433732313a206f70657261746f7220717565727920666f72206e6f6e657860008201527f697374656e7420746f6b656e0000000000000000000000000000000000000000602082015250565b6000613b66602c83612a1c565b9150613b7182613b0a565b604082019050919050565b60006020820190508181036000830152613b9581613b59565b9050919050565b7f4552433732313a207472616e73666572206f6620746f6b656e2074686174206960008201527f73206e6f74206f776e0000000000000000000000000000000000000000000000602082015250565b6000613bf8602983612a1c565b9150613c0382613b9c565b604082019050919050565b60006020820190508181036000830152613c2781613beb565b9050919050565b7f4552433732313a207472616e7366657220746f20746865207a65726f2061646460008201527f7265737300000000000000000000000000000000000000000000000000000000602082015250565b6000613c8a602483612a1c565b9150613c9582613c2e565b604082019050919050565b60006020820190508181036000830152613cb981613c7d565b9050919050565b6000613ccb82612acc565b9150613cd683612acc565b925082821015613ce957613ce8613688565b5b828203905092915050565b7f4552433732313a20617070726f766520746f2063616c6c657200000000000000600082015250565b6000613d2a601983612a1c565b9150613d3582613cf4565b602082019050919050565b60006020820190508181036000830152613d5981613d1d565b9050919050565b7f4552433732313a207472616e7366657220746f206e6f6e20455243373231526560008201527f63656976657220696d706c656d656e7465720000000000000000000000000000602082015250565b6000613dbc603283612a1c565b9150613dc782613d60565b604082019050919050565b60006020820190508181036000830152613deb81613daf565b9050919050565b7f4e487b7100000000000000000000000000000000000000000000000000000000600052601260045260246000fd5b6000613e2c82612acc565b9150613e3783612acc565b925082613e4757613e46613df2565b5b828204905092915050565b6000613e5d82612acc565b9150613e6883612acc565b925082613e7857613e77613df2565b5b828206905092915050565b600081519050919050565b600082825260208201905092915050565b6000613eaa82613e83565b613eb48185613e8e565b9350613ec4818560208601612a2d565b613ecd81612a60565b840191505092915050565b6000608082019050613eed6000830187612b61565b613efa6020830186612b61565b613f076040830185612bf7565b8181036060830152613f198184613e9f565b905095945050505050565b600081519050613f3381612982565b92915050565b600060208284031215613f4f57613f4e61294c565b5b6000613f5d84828501613f24565b91505092915050565b7f4e487b7100000000000000000000000000000000000000000000000000000000600052603160045260246000fd5b7f4552433732313a206d696e7420746f20746865207a65726f2061646472657373600082015250565b6000613fcb602083612a1c565b9150613fd682613f95565b602082019050919050565b60006020820190508181036000830152613ffa81613fbe565b9050919050565b7f4552433732313a20746f6b656e20616c7265616479206d696e74656400000000600082015250565b6000614037601c83612a1c565b915061404282614001565b602082019050919050565b600060208201905081810360008301526140668161402a565b905091905056fea2646970667358221220118b07d0cf3ee75ddceffb71c6c7200bdd749f137541a5bd474d72b8d7149f5564736f6c63430008090033",
    "immutableReferences": {},
    "source": "// SPDX-License-Identifier: MIT\r\npragma solidity ^0.8.9;\r\n\r\n// https://www.poninis.com\r\n\r\n/**\r\n'########:::'#######::'##::: ##:'####:'##::: ##:'####::'######::\r\n ##.... ##:'##.... ##: ###:: ##:. ##:: ###:: ##:. ##::'##... ##:\r\n ##:::: ##: ##:::: ##: ####: ##:: ##:: ####: ##:: ##:: ##:::..::\r\n ########:: ##:::: ##: ## ## ##:: ##:: ## ## ##:: ##::. ######::\r\n ##.....::: ##:::: ##: ##. ####:: ##:: ##. ####:: ##:::..... ##:\r\n ##:::::::: ##:::: ##: ##:. ###:: ##:: ##:. ###:: ##::'##::: ##:\r\n ##::::::::. #######:: ##::. ##:'####: ##::. ##:'####:. ######::\r\n..::::::::::.......:::..::::..::....::..::::..::....:::......:::\r\n**/\r\n\r\nimport '@openzeppelin/contracts/token/ERC721/extensions/ERC721Enumerable.sol';\r\nimport '@openzeppelin/contracts/access/Ownable.sol';\r\n\r\ncontract PoninisAlmighty is ERC721Enumerable, Ownable {  \r\n    using Address for address;\r\n    \r\n    // Starting and stopping sale, presale and whitelist\r\n    bool public saleActive = false;\r\n\r\n    // Price of each token\r\n    uint256 public initial_price = 25 ether;\r\n    uint256 public price;\r\n\r\n    // Maximum limit of tokens that can ever exist\r\n    uint256 public constant MAX_SUPPLY = 10;\r\n    uint256 public constant MAX_MINT_PER_TX = 1;\r\n\r\n    // The base link that leads to the image / video of the token\r\n    string public baseTokenURI = \"http://137.184.216.183/\";\r\n\r\n    constructor () ERC721 (\"Poninis Almighty Limited Edition\", \"PALE\") {\r\n        price = initial_price;\r\n    }\r\n\r\n    // Override so the openzeppelin tokenURI() method will use this method to create the full tokenURI instead\r\n    function _baseURI() internal view virtual override returns (string memory) {\r\n        return baseTokenURI;\r\n    }\r\n\r\n    // See which address owns which tokens\r\n    function tokensOfOwner(address addr) public view returns(uint256[] memory) {\r\n        uint256 tokenCount = balanceOf(addr);\r\n        uint256[] memory tokensId = new uint256[](tokenCount);\r\n        for(uint256 i; i < tokenCount; i++){\r\n            tokensId[i] = tokenOfOwnerByIndex(addr, i);\r\n        }\r\n        return tokensId;\r\n    }\r\n\r\n    // Standard mint function\r\n    function mintToken(uint256 _amount) public payable {\r\n        uint256 supply = totalSupply();\r\n        require( saleActive,                                \"Sale isn't active\" );\r\n        require( _amount > 0 && _amount <= MAX_MINT_PER_TX, \"Can only mint between 1 and 5 tokens at once\" );\r\n        require( supply + _amount <= MAX_SUPPLY,            \"Can't mint more than max supply\" );\r\n        require( msg.value == price * _amount,              \"Wrong amount of MATIC sent\" );\r\n        for(uint256 i; i < _amount; i++){\r\n            _safeMint( msg.sender, supply + i );\r\n        }\r\n    }\r\n\r\n    // Start and stop sale\r\n    function setSaleActive(bool val) public onlyOwner {\r\n        saleActive = val;\r\n    }\r\n\r\n    // Set new baseURI\r\n    function setBaseURI(string memory baseURI) public onlyOwner {\r\n        baseTokenURI = baseURI;\r\n    }\r\n\r\n    // Set a different price in case MATIC changes drastically\r\n    function setPrice(uint256 newPrice) public onlyOwner {\r\n        price = newPrice;\r\n    }\r\n\r\n    // Withdraw funds\r\n    function withdraw() public payable onlyOwner {\r\n        require(payable(msg.sender).send(address(this).balance));\r\n        }\r\n    }",
    "sourcePath": "C:\\Users\\mrqui\\Desktop\\Poninis_Almighty\\contracts\\PoninisAlmighty.sol",
    "compiler": {
        "name": "solc",
        "version": "0.8.9+commit.e5eed63a.Emscripten.clang"
    },
    "schemaVersion": "3.4.4",
    "updatedAt": "2022-04-18T13:07:13.439Z",
    "networkType": "ethereum",
    "devdoc": {
        "kind": "dev",
        "methods": {
            "approve(address,uint256)": {
                "details": "See {IERC721-approve}."
            },
            "balanceOf(address)": {
                "details": "See {IERC721-balanceOf}."
            },
            "getApproved(uint256)": {
                "details": "See {IERC721-getApproved}."
            },
            "isApprovedForAll(address,address)": {
                "details": "See {IERC721-isApprovedForAll}."
            },
            "name()": {
                "details": "See {IERC721Metadata-name}."
            },
            "owner()": {
                "details": "Returns the address of the current owner."
            },
            "ownerOf(uint256)": {
                "details": "See {IERC721-ownerOf}."
            },
            "renounceOwnership()": {
                "details": "Leaves the contract without owner. It will not be possible to call `onlyOwner` functions anymore. Can only be called by the current owner. NOTE: Renouncing ownership will leave the contract without an owner, thereby removing any functionality that is only available to the owner."
            },
            "safeTransferFrom(address,address,uint256)": {
                "details": "See {IERC721-safeTransferFrom}."
            },
            "safeTransferFrom(address,address,uint256,bytes)": {
                "details": "See {IERC721-safeTransferFrom}."
            },
            "setApprovalForAll(address,bool)": {
                "details": "See {IERC721-setApprovalForAll}."
            },
            "supportsInterface(bytes4)": {
                "details": "See {IERC165-supportsInterface}."
            },
            "symbol()": {
                "details": "See {IERC721Metadata-symbol}."
            },
            "tokenByIndex(uint256)": {
                "details": "See {IERC721Enumerable-tokenByIndex}."
            },
            "tokenOfOwnerByIndex(address,uint256)": {
                "details": "See {IERC721Enumerable-tokenOfOwnerByIndex}."
            },
            "tokenURI(uint256)": {
                "details": "See {IERC721Metadata-tokenURI}."
            },
            "totalSupply()": {
                "details": "See {IERC721Enumerable-totalSupply}."
            },
            "transferFrom(address,address,uint256)": {
                "details": "See {IERC721-transferFrom}."
            },
            "transferOwnership(address)": {
                "details": "Transfers ownership of the contract to a new account (`newOwner`). Can only be called by the current owner."
            }
        },
        "version": 1
    },
    "userdoc": {
        "kind": "user",
        "methods": {},
        "version": 1
    }
}